{
  "_format": "hh-sol-artifact-1",
  "contractName": "CarBlock",
  "sourceName": "contracts/CarBlock.sol",
  "abi": [
    {
      "inputs": [],
      "stateMutability": "nonpayable",
      "type": "constructor"
    },
    {
      "inputs": [
        {
          "internalType": "address payable",
          "name": "walletAddress",
          "type": "address"
        },
        {
          "internalType": "string",
          "name": "firstName",
          "type": "string"
        },
        {
          "internalType": "string",
          "name": "lastName",
          "type": "string"
        },
        {
          "internalType": "bool",
          "name": "canRent",
          "type": "bool"
        },
        {
          "internalType": "bool",
          "name": "active",
          "type": "bool"
        },
        {
          "internalType": "uint256",
          "name": "balance",
          "type": "uint256"
        },
        {
          "internalType": "uint256",
          "name": "due",
          "type": "uint256"
        },
        {
          "internalType": "uint256",
          "name": "start",
          "type": "uint256"
        },
        {
          "internalType": "uint256",
          "name": "end",
          "type": "uint256"
        }
      ],
      "name": "addRenter",
      "outputs": [],
      "stateMutability": "nonpayable",
      "type": "function"
    },
    {
      "inputs": [],
      "name": "balanceOf",
      "outputs": [
        {
          "internalType": "uint256",
          "name": "",
          "type": "uint256"
        }
      ],
      "stateMutability": "view",
      "type": "function"
    },
    {
      "inputs": [
        {
          "internalType": "address",
          "name": "walletAddress",
          "type": "address"
        }
      ],
      "name": "balanceOfRenter",
      "outputs": [
        {
          "internalType": "uint256",
          "name": "",
          "type": "uint256"
        }
      ],
      "stateMutability": "view",
      "type": "function"
    },
    {
      "inputs": [
        {
          "internalType": "address",
          "name": "walletAddress",
          "type": "address"
        }
      ],
      "name": "canRentCar",
      "outputs": [
        {
          "internalType": "bool",
          "name": "",
          "type": "bool"
        }
      ],
      "stateMutability": "view",
      "type": "function"
    },
    {
      "inputs": [
        {
          "internalType": "address",
          "name": "walletAddress",
          "type": "address"
        }
      ],
      "name": "checkIn",
      "outputs": [],
      "stateMutability": "nonpayable",
      "type": "function"
    },
    {
      "inputs": [
        {
          "internalType": "address",
          "name": "walletAddress",
          "type": "address"
        }
      ],
      "name": "checkOut",
      "outputs": [],
      "stateMutability": "nonpayable",
      "type": "function"
    },
    {
      "inputs": [
        {
          "internalType": "address",
          "name": "walletAddress",
          "type": "address"
        }
      ],
      "name": "deposit",
      "outputs": [],
      "stateMutability": "payable",
      "type": "function"
    },
    {
      "inputs": [
        {
          "internalType": "address",
          "name": "walletAdress",
          "type": "address"
        }
      ],
      "name": "getDue",
      "outputs": [
        {
          "internalType": "uint256",
          "name": "",
          "type": "uint256"
        }
      ],
      "stateMutability": "view",
      "type": "function"
    },
    {
      "inputs": [
        {
          "internalType": "address",
          "name": "walletAddress",
          "type": "address"
        }
      ],
      "name": "getRenter",
      "outputs": [
        {
          "internalType": "string",
          "name": "firstName",
          "type": "string"
        },
        {
          "internalType": "string",
          "name": "lastName",
          "type": "string"
        },
        {
          "internalType": "bool",
          "name": "canRent",
          "type": "bool"
        },
        {
          "internalType": "bool",
          "name": "active",
          "type": "bool"
        }
      ],
      "stateMutability": "view",
      "type": "function"
    },
    {
      "inputs": [
        {
          "internalType": "address",
          "name": "walletAddress",
          "type": "address"
        }
      ],
      "name": "getTotalDuration",
      "outputs": [
        {
          "internalType": "uint256",
          "name": "",
          "type": "uint256"
        }
      ],
      "stateMutability": "view",
      "type": "function"
    },
    {
      "inputs": [
        {
          "internalType": "address",
          "name": "walletAddress",
          "type": "address"
        }
      ],
      "name": "makePayment",
      "outputs": [],
      "stateMutability": "payable",
      "type": "function"
    },
    {
      "inputs": [
        {
          "internalType": "address",
          "name": "walletAddress",
          "type": "address"
        }
      ],
      "name": "renterExist",
      "outputs": [
        {
          "internalType": "bool",
          "name": "",
          "type": "bool"
        }
      ],
      "stateMutability": "view",
      "type": "function"
    },
    {
      "inputs": [
        {
          "internalType": "address",
          "name": "",
          "type": "address"
        }
      ],
      "name": "renters",
      "outputs": [
        {
          "internalType": "address payable",
          "name": "walletAddress",
          "type": "address"
        },
        {
          "internalType": "string",
          "name": "firstName",
          "type": "string"
        },
        {
          "internalType": "string",
          "name": "lastName",
          "type": "string"
        },
        {
          "internalType": "bool",
          "name": "canRent",
          "type": "bool"
        },
        {
          "internalType": "bool",
          "name": "active",
          "type": "bool"
        },
        {
          "internalType": "uint256",
          "name": "balance",
          "type": "uint256"
        },
        {
          "internalType": "uint256",
          "name": "due",
          "type": "uint256"
        },
        {
          "internalType": "uint256",
          "name": "start",
          "type": "uint256"
        },
        {
          "internalType": "uint256",
          "name": "end",
          "type": "uint256"
        }
      ],
      "stateMutability": "view",
      "type": "function"
    }
  ],
  "bytecode": "0x6080604052348015600f57600080fd5b50336000806101000a81548173ffffffffffffffffffffffffffffffffffffffff021916908373ffffffffffffffffffffffffffffffffffffffff160217905550611e898061005f6000396000f3fe6080604052600436106100c25760003560e01c80638d23caa01161007f578063c6d2a84611610059578063c6d2a8461461029c578063d2b478df146102d9578063d9a59e3314610316578063f340fa011461033f576100c2565b80638d23caa0146101f9578063aad1b61714610222578063af6143d31461025f576100c2565b8063300be4fc146100c757806341ba6e89146100e35780635e64972714610120578063644a1370146101495780636a4b27f41461018e578063722713f7146101ce575b600080fd5b6100e160048036038101906100dc9190611309565b61035b565b005b3480156100ef57600080fd5b5061010a60048036038101906101059190611309565b6105f2565b604051610117919061134f565b60405180910390f35b34801561012c57600080fd5b5061014760048036038101906101429190611552565b610742565b005b34801561015557600080fd5b50610170600480360381019061016b9190611309565b6108c5565b604051610185999897969594939291906116f1565b60405180910390f35b34801561019a57600080fd5b506101b560048036038101906101b09190611309565b610a5d565b6040516101c5949392919061178c565b60405180910390f35b3480156101da57600080fd5b506101e3610ca8565b6040516101f0919061134f565b60405180910390f35b34801561020557600080fd5b50610220600480360381019061021b9190611309565b610cb0565b005b34801561022e57600080fd5b5061024960048036038101906102449190611309565b610eca565b604051610256919061134f565b60405180910390f35b34801561026b57600080fd5b5061028660048036038101906102819190611309565b610f16565b60405161029391906117df565b60405180910390f35b3480156102a857600080fd5b506102c360048036038101906102be9190611309565b610f6f565b6040516102d0919061134f565b60405180910390f35b3480156102e557600080fd5b5061030060048036038101906102fb9190611309565b610fbb565b60405161030d91906117df565b60405180910390f35b34801561032257600080fd5b5061033d60048036038101906103389190611309565b611065565b005b61035960048036038101906103549190611309565b6111a9565b005b6000600160008373ffffffffffffffffffffffffffffffffffffffff1673ffffffffffffffffffffffffffffffffffffffff16815260200190815260200160002060050154116103e0576040517f08c379a00000000000000000000000000000000000000000000000000000000081526004016103d79061186c565b60405180910390fd5b34600160008373ffffffffffffffffffffffffffffffffffffffff1673ffffffffffffffffffffffffffffffffffffffff1681526020019081526020016000206004015411610464576040517f08c379a000000000000000000000000000000000000000000000000000000000815260040161045b906118d8565b60405180910390fd5b34600160008373ffffffffffffffffffffffffffffffffffffffff1673ffffffffffffffffffffffffffffffffffffffff16815260200190815260200160002060040160008282546104b69190611927565b9250508190555060018060008373ffffffffffffffffffffffffffffffffffffffff1673ffffffffffffffffffffffffffffffffffffffff16815260200190815260200160002060030160006101000a81548160ff0219169083151502179055506000600160008373ffffffffffffffffffffffffffffffffffffffff1673ffffffffffffffffffffffffffffffffffffffff168152602001908152602001600020600501819055506000600160008373ffffffffffffffffffffffffffffffffffffffff1673ffffffffffffffffffffffffffffffffffffffff168152602001908152602001600020600601819055506000600160008373ffffffffffffffffffffffffffffffffffffffff1673ffffffffffffffffffffffffffffffffffffffff1681526020019081526020016000206007018190555050565b600080600160008473ffffffffffffffffffffffffffffffffffffffff1673ffffffffffffffffffffffffffffffffffffffff16815260200190815260200160002060060154148061068657506000600160008473ffffffffffffffffffffffffffffffffffffffff1673ffffffffffffffffffffffffffffffffffffffff16815260200190815260200160002060070154145b15610694576000905061073d565b6000610724600160008573ffffffffffffffffffffffffffffffffffffffff1673ffffffffffffffffffffffffffffffffffffffff16815260200190815260200160002060060154600160008673ffffffffffffffffffffffffffffffffffffffff1673ffffffffffffffffffffffffffffffffffffffff16815260200190815260200160002060070154611205565b90506000603c82610735919061198a565b905080925050505b919050565b6040518061012001604052808a73ffffffffffffffffffffffffffffffffffffffff1681526020018981526020018881526020018715158152602001861515815260200185815260200184815260200183815260200182815250600160008b73ffffffffffffffffffffffffffffffffffffffff1673ffffffffffffffffffffffffffffffffffffffff16815260200190815260200160002060008201518160000160006101000a81548173ffffffffffffffffffffffffffffffffffffffff021916908373ffffffffffffffffffffffffffffffffffffffff16021790555060208201518160010190816108379190611bc7565b50604082015181600201908161084d9190611bc7565b5060608201518160030160006101000a81548160ff02191690831515021790555060808201518160030160016101000a81548160ff02191690831515021790555060a0820151816004015560c0820151816005015560e082015181600601556101008201518160070155905050505050505050505050565b60016020528060005260406000206000915090508060000160009054906101000a900473ffffffffffffffffffffffffffffffffffffffff169080600101805461090e906119ea565b80601f016020809104026020016040519081016040528092919081815260200182805461093a906119ea565b80156109875780601f1061095c57610100808354040283529160200191610987565b820191906000526020600020905b81548152906001019060200180831161096a57829003601f168201915b50505050509080600201805461099c906119ea565b80601f01602080910402602001604051908101604052809291908181526020018280546109c8906119ea565b8015610a155780601f106109ea57610100808354040283529160200191610a15565b820191906000526020600020905b8154815290600101906020018083116109f857829003601f168201915b5050505050908060030160009054906101000a900460ff16908060030160019054906101000a900460ff16908060040154908060050154908060060154908060070154905089565b606080600080600160008673ffffffffffffffffffffffffffffffffffffffff1673ffffffffffffffffffffffffffffffffffffffff1681526020019081526020016000206001018054610ab0906119ea565b80601f0160208091040260200160405190810160405280929190818152602001828054610adc906119ea565b8015610b295780601f10610afe57610100808354040283529160200191610b29565b820191906000526020600020905b815481529060010190602001808311610b0c57829003601f168201915b50505050509350600160008673ffffffffffffffffffffffffffffffffffffffff1673ffffffffffffffffffffffffffffffffffffffff1681526020019081526020016000206002018054610b7d906119ea565b80601f0160208091040260200160405190810160405280929190818152602001828054610ba9906119ea565b8015610bf65780601f10610bcb57610100808354040283529160200191610bf6565b820191906000526020600020905b815481529060010190602001808311610bd957829003601f168201915b50505050509250600160008673ffffffffffffffffffffffffffffffffffffffff1673ffffffffffffffffffffffffffffffffffffffff16815260200190815260200160002060030160009054906101000a900460ff169150600160008673ffffffffffffffffffffffffffffffffffffffff1673ffffffffffffffffffffffffffffffffffffffff16815260200190815260200160002060030160009054906101000a900460ff1690509193509193565b600047905090565b6000600160008373ffffffffffffffffffffffffffffffffffffffff1673ffffffffffffffffffffffffffffffffffffffff1681526020019081526020016000206005015414610d35576040517f08c379a0000000000000000000000000000000000000000000000000000000008152600401610d2c90611ce5565b60405180910390fd5b60011515600160008373ffffffffffffffffffffffffffffffffffffffff1673ffffffffffffffffffffffffffffffffffffffff16815260200190815260200160002060030160009054906101000a900460ff16151514610dcb576040517f08c379a0000000000000000000000000000000000000000000000000000000008152600401610dc290611d51565b60405180910390fd5b60018060008373ffffffffffffffffffffffffffffffffffffffff1673ffffffffffffffffffffffffffffffffffffffff16815260200190815260200160002060030160016101000a81548160ff02191690831515021790555042600160008373ffffffffffffffffffffffffffffffffffffffff1673ffffffffffffffffffffffffffffffffffffffff168152602001908152602001600020600601819055506000600160008373ffffffffffffffffffffffffffffffffffffffff1673ffffffffffffffffffffffffffffffffffffffff16815260200190815260200160002060030160006101000a81548160ff02191690831515021790555050565b6000600160008373ffffffffffffffffffffffffffffffffffffffff1673ffffffffffffffffffffffffffffffffffffffff168152602001908152602001600020600401549050919050565b6000600160008373ffffffffffffffffffffffffffffffffffffffff1673ffffffffffffffffffffffffffffffffffffffff16815260200190815260200160002060030160009054906101000a900460ff169050919050565b6000600160008373ffffffffffffffffffffffffffffffffffffffff1673ffffffffffffffffffffffffffffffffffffffff168152602001908152602001600020600501549050919050565b60008073ffffffffffffffffffffffffffffffffffffffff16600160008473ffffffffffffffffffffffffffffffffffffffff1673ffffffffffffffffffffffffffffffffffffffff16815260200190815260200160002060000160009054906101000a900473ffffffffffffffffffffffffffffffffffffffff1673ffffffffffffffffffffffffffffffffffffffff161461105b5760019050611060565b600090505b919050565b60011515600160008373ffffffffffffffffffffffffffffffffffffffff1673ffffffffffffffffffffffffffffffffffffffff16815260200190815260200160002060030160019054906101000a900460ff161515146110fb576040517f08c379a00000000000000000000000000000000000000000000000000000000081526004016110f290611dbd565b60405180910390fd5b6000600160008373ffffffffffffffffffffffffffffffffffffffff1673ffffffffffffffffffffffffffffffffffffffff16815260200190815260200160002060030160016101000a81548160ff02191690831515021790555042600160008373ffffffffffffffffffffffffffffffffffffffff1673ffffffffffffffffffffffffffffffffffffffff168152602001908152602001600020600701819055506111a68161121b565b50565b34600160008373ffffffffffffffffffffffffffffffffffffffff1673ffffffffffffffffffffffffffffffffffffffff16815260200190815260200160002060040160008282546111fb9190611ddd565b9250508190555050565b600082826112139190611927565b905092915050565b6000611226826105f2565b90506000600582611237919061198a565b90506611c37937e080008161124c9190611e11565b600160008573ffffffffffffffffffffffffffffffffffffffff1673ffffffffffffffffffffffffffffffffffffffff16815260200190815260200160002060050181905550505050565b6000604051905090565b600080fd5b600080fd5b600073ffffffffffffffffffffffffffffffffffffffff82169050919050565b60006112d6826112ab565b9050919050565b6112e6816112cb565b81146112f157600080fd5b50565b600081359050611303816112dd565b92915050565b60006020828403121561131f5761131e6112a1565b5b600061132d848285016112f4565b91505092915050565b6000819050919050565b61134981611336565b82525050565b60006020820190506113646000830184611340565b92915050565b6000611375826112ab565b9050919050565b6113858161136a565b811461139057600080fd5b50565b6000813590506113a28161137c565b92915050565b600080fd5b600080fd5b6000601f19601f8301169050919050565b7f4e487b7100000000000000000000000000000000000000000000000000000000600052604160045260246000fd5b6113fb826113b2565b810181811067ffffffffffffffff8211171561141a576114196113c3565b5b80604052505050565b600061142d611297565b905061143982826113f2565b919050565b600067ffffffffffffffff821115611459576114586113c3565b5b611462826113b2565b9050602081019050919050565b82818337600083830152505050565b600061149161148c8461143e565b611423565b9050828152602081018484840111156114ad576114ac6113ad565b5b6114b884828561146f565b509392505050565b600082601f8301126114d5576114d46113a8565b5b81356114e584826020860161147e565b91505092915050565b60008115159050919050565b611503816114ee565b811461150e57600080fd5b50565b600081359050611520816114fa565b92915050565b61152f81611336565b811461153a57600080fd5b50565b60008135905061154c81611526565b92915050565b60008060008060008060008060006101208a8c031215611575576115746112a1565b5b60006115838c828d01611393565b99505060208a013567ffffffffffffffff8111156115a4576115a36112a6565b5b6115b08c828d016114c0565b98505060408a013567ffffffffffffffff8111156115d1576115d06112a6565b5b6115dd8c828d016114c0565b97505060606115ee8c828d01611511565b96505060806115ff8c828d01611511565b95505060a06116108c828d0161153d565b94505060c06116218c828d0161153d565b93505060e06116328c828d0161153d565b9250506101006116448c828d0161153d565b9150509295985092959850929598565b61165d8161136a565b82525050565b600081519050919050565b600082825260208201905092915050565b60005b8381101561169d578082015181840152602081019050611682565b60008484015250505050565b60006116b482611663565b6116be818561166e565b93506116ce81856020860161167f565b6116d7816113b2565b840191505092915050565b6116eb816114ee565b82525050565b600061012082019050611707600083018c611654565b8181036020830152611719818b6116a9565b9050818103604083015261172d818a6116a9565b905061173c60608301896116e2565b61174960808301886116e2565b61175660a0830187611340565b61176360c0830186611340565b61177060e0830185611340565b61177e610100830184611340565b9a9950505050505050505050565b600060808201905081810360008301526117a681876116a9565b905081810360208301526117ba81866116a9565b90506117c960408301856116e2565b6117d660608301846116e2565b95945050505050565b60006020820190506117f460008301846116e2565b92915050565b7f596f7520646f206e6f74206861766520616e797468696e67206475652061742060008201527f746869732074696d652e00000000000000000000000000000000000000000000602082015250565b6000611856602a8361166e565b9150611861826117fa565b604082019050919050565b6000602082019050818103600083015261188581611849565b9050919050565b7f506c65617365206d616b652061206465706f7369742e00000000000000000000600082015250565b60006118c260168361166e565b91506118cd8261188c565b602082019050919050565b600060208201905081810360008301526118f1816118b5565b9050919050565b7f4e487b7100000000000000000000000000000000000000000000000000000000600052601160045260246000fd5b600061193282611336565b915061193d83611336565b9250828203905081811115611955576119546118f8565b5b92915050565b7f4e487b7100000000000000000000000000000000000000000000000000000000600052601260045260246000fd5b600061199582611336565b91506119a083611336565b9250826119b0576119af61195b565b5b828204905092915050565b7f4e487b7100000000000000000000000000000000000000000000000000000000600052602260045260246000fd5b60006002820490506001821680611a0257607f821691505b602082108103611a1557611a146119bb565b5b50919050565b60008190508160005260206000209050919050565b60006020601f8301049050919050565b600082821b905092915050565b600060088302611a7d7fffffffffffffffffffffffffffffffffffffffffffffffffffffffffffffffff82611a40565b611a878683611a40565b95508019841693508086168417925050509392505050565b6000819050919050565b6000611ac4611abf611aba84611336565b611a9f565b611336565b9050919050565b6000819050919050565b611ade83611aa9565b611af2611aea82611acb565b848454611a4d565b825550505050565b600090565b611b07611afa565b611b12818484611ad5565b505050565b5b81811015611b3657611b2b600082611aff565b600181019050611b18565b5050565b601f821115611b7b57611b4c81611a1b565b611b5584611a30565b81016020851015611b64578190505b611b78611b7085611a30565b830182611b17565b50505b505050565b600082821c905092915050565b6000611b9e60001984600802611b80565b1980831691505092915050565b6000611bb78383611b8d565b9150826002028217905092915050565b611bd082611663565b67ffffffffffffffff811115611be957611be86113c3565b5b611bf382546119ea565b611bfe828285611b3a565b600060209050601f831160018114611c315760008415611c1f578287015190505b611c298582611bab565b865550611c91565b601f198416611c3f86611a1b565b60005b82811015611c6757848901518255600182019150602085019450602081019050611c42565b86831015611c845784890151611c80601f891682611b8d565b8355505b6001600288020188555050505b505050505050565b7f50656e64696e672062616c616e63652e00000000000000000000000000000000600082015250565b6000611ccf60108361166e565b9150611cda82611c99565b602082019050919050565b60006020820190508181036000830152611cfe81611cc2565b9050919050565b7f536f727279000000000000000000000000000000000000000000000000000000600082015250565b6000611d3b60058361166e565b9150611d4682611d05565b602082019050919050565b60006020820190508181036000830152611d6a81611d2e565b9050919050565b7f636865636b206f75742061206361722066697273742e00000000000000000000600082015250565b6000611da760168361166e565b9150611db282611d71565b602082019050919050565b60006020820190508181036000830152611dd681611d9a565b9050919050565b6000611de882611336565b9150611df383611336565b9250828201905080821115611e0b57611e0a6118f8565b5b92915050565b6000611e1c82611336565b9150611e2783611336565b9250828202611e3581611336565b91508282048414831517611e4c57611e4b6118f8565b5b509291505056fea26469706673582212202e0158effb48b7b8ac9ead2586ebe6b40d5026cb47edba42d4e2dbd22c85a6b564736f6c634300081a0033",
  "linkReferences": {},
  "deployedLinkReferences": {}
}